{
  "abi": [
    {
      "type": "constructor",
      "inputs": [],
      "stateMutability": "nonpayable"
    },
    {
      "type": "receive",
      "stateMutability": "payable"
    },
    {
      "type": "function",
      "name": "DEFAULT_ADMIN_ROLE",
      "inputs": [],
      "outputs": [
        {
          "name": "",
          "type": "bytes32",
          "internalType": "bytes32"
        }
      ],
      "stateMutability": "view"
    },
    {
      "type": "function",
      "name": "MINTER_ROLE",
      "inputs": [],
      "outputs": [
        {
          "name": "",
          "type": "bytes32",
          "internalType": "bytes32"
        }
      ],
      "stateMutability": "view"
    },
    {
      "type": "function",
      "name": "REDEEMER_ROLE",
      "inputs": [],
      "outputs": [
        {
          "name": "",
          "type": "bytes32",
          "internalType": "bytes32"
        }
      ],
      "stateMutability": "view"
    },
    {
      "type": "function",
      "name": "UPGRADE_INTERFACE_VERSION",
      "inputs": [],
      "outputs": [
        {
          "name": "",
          "type": "string",
          "internalType": "string"
        }
      ],
      "stateMutability": "view"
    },
    {
      "type": "function",
      "name": "getRoleAdmin",
      "inputs": [
        {
          "name": "role",
          "type": "bytes32",
          "internalType": "bytes32"
        }
      ],
      "outputs": [
        {
          "name": "",
          "type": "bytes32",
          "internalType": "bytes32"
        }
      ],
      "stateMutability": "view"
    },
    {
      "type": "function",
      "name": "grantRole",
      "inputs": [
        {
          "name": "role",
          "type": "bytes32",
          "internalType": "bytes32"
        },
        {
          "name": "account",
          "type": "address",
          "internalType": "address"
        }
      ],
      "outputs": [],
      "stateMutability": "nonpayable"
    },
    {
      "type": "function",
      "name": "hasRole",
      "inputs": [
        {
          "name": "role",
          "type": "bytes32",
          "internalType": "bytes32"
        },
        {
          "name": "account",
          "type": "address",
          "internalType": "address"
        }
      ],
      "outputs": [
        {
          "name": "",
          "type": "bool",
          "internalType": "bool"
        }
      ],
      "stateMutability": "view"
    },
    {
      "type": "function",
      "name": "initialize",
      "inputs": [
        {
          "name": "_governance",
          "type": "address",
          "internalType": "address"
        },
        {
          "name": "_storage",
          "type": "tuple",
          "internalType": "struct SFLUVZapperStorageInit",
          "components": [
            {
              "name": "honeyFactory",
              "type": "address",
              "internalType": "address"
            },
            {
              "name": "sfluv",
              "type": "address",
              "internalType": "address"
            },
            {
              "name": "byusd",
              "type": "address",
              "internalType": "address"
            },
            {
              "name": "honey",
              "type": "address",
              "internalType": "address"
            },
            {
              "name": "honeyToBYUSDPool",
              "type": "address",
              "internalType": "address"
            },
            {
              "name": "byusdVault",
              "type": "address",
              "internalType": "address"
            }
          ]
        }
      ],
      "outputs": [],
      "stateMutability": "nonpayable"
    },
    {
      "type": "function",
      "name": "proxiableUUID",
      "inputs": [],
      "outputs": [
        {
          "name": "",
          "type": "bytes32",
          "internalType": "bytes32"
        }
      ],
      "stateMutability": "view"
    },
    {
      "type": "function",
      "name": "recoverTo",
      "inputs": [
        {
          "name": "to",
          "type": "address",
          "internalType": "address payable"
        }
      ],
      "outputs": [],
      "stateMutability": "nonpayable"
    },
    {
      "type": "function",
      "name": "renounceRole",
      "inputs": [
        {
          "name": "role",
          "type": "bytes32",
          "internalType": "bytes32"
        },
        {
          "name": "callerConfirmation",
          "type": "address",
          "internalType": "address"
        }
      ],
      "outputs": [],
      "stateMutability": "nonpayable"
    },
    {
      "type": "function",
      "name": "revokeRole",
      "inputs": [
        {
          "name": "role",
          "type": "bytes32",
          "internalType": "bytes32"
        },
        {
          "name": "account",
          "type": "address",
          "internalType": "address"
        }
      ],
      "outputs": [],
      "stateMutability": "nonpayable"
    },
    {
      "type": "function",
      "name": "setLiquidityPool",
      "inputs": [
        {
          "name": "pool",
          "type": "address",
          "internalType": "address"
        }
      ],
      "outputs": [],
      "stateMutability": "nonpayable"
    },
    {
      "type": "function",
      "name": "supportsInterface",
      "inputs": [
        {
          "name": "interfaceId",
          "type": "bytes4",
          "internalType": "bytes4"
        }
      ],
      "outputs": [
        {
          "name": "",
          "type": "bool",
          "internalType": "bool"
        }
      ],
      "stateMutability": "view"
    },
    {
      "type": "function",
      "name": "uniswapV3SwapCallback",
      "inputs": [
        {
          "name": "amount0Delta",
          "type": "int256",
          "internalType": "int256"
        },
        {
          "name": "amount1Delta",
          "type": "int256",
          "internalType": "int256"
        },
        {
          "name": "",
          "type": "bytes",
          "internalType": "bytes"
        }
      ],
      "outputs": [],
      "stateMutability": "nonpayable"
    },
    {
      "type": "function",
      "name": "unwrapSwapAndBridge",
      "inputs": [
        {
          "name": "amount",
          "type": "uint256",
          "internalType": "uint256"
        },
        {
          "name": "to",
          "type": "address",
          "internalType": "address"
        }
      ],
      "outputs": [
        {
          "name": "",
          "type": "tuple",
          "internalType": "struct MessagingReceipt",
          "components": [
            {
              "name": "guid",
              "type": "bytes32",
              "internalType": "bytes32"
            },
            {
              "name": "nonce",
              "type": "uint64",
              "internalType": "uint64"
            },
            {
              "name": "fee",
              "type": "tuple",
              "internalType": "struct MessagingFee",
              "components": [
                {
                  "name": "nativeFee",
                  "type": "uint256",
                  "internalType": "uint256"
                },
                {
                  "name": "lzTokenFee",
                  "type": "uint256",
                  "internalType": "uint256"
                }
              ]
            }
          ]
        },
        {
          "name": "",
          "type": "tuple",
          "internalType": "struct OFTReceipt",
          "components": [
            {
              "name": "amountSentLD",
              "type": "uint256",
              "internalType": "uint256"
            },
            {
              "name": "amountReceivedLD",
              "type": "uint256",
              "internalType": "uint256"
            }
          ]
        }
      ],
      "stateMutability": "nonpayable"
    },
    {
      "type": "function",
      "name": "upgradeToAndCall",
      "inputs": [
        {
          "name": "newImplementation",
          "type": "address",
          "internalType": "address"
        },
        {
          "name": "data",
          "type": "bytes",
          "internalType": "bytes"
        }
      ],
      "outputs": [],
      "stateMutability": "payable"
    },
    {
      "type": "function",
      "name": "zapIn",
      "inputs": [
        {
          "name": "amount",
          "type": "uint256",
          "internalType": "uint256"
        }
      ],
      "outputs": [],
      "stateMutability": "nonpayable"
    },
    {
      "type": "function",
      "name": "zapInTo",
      "inputs": [
        {
          "name": "amount",
          "type": "uint256",
          "internalType": "uint256"
        },
        {
          "name": "to",
          "type": "address",
          "internalType": "address"
        }
      ],
      "outputs": [],
      "stateMutability": "nonpayable"
    },
    {
      "type": "function",
      "name": "zapOut",
      "inputs": [
        {
          "name": "amount",
          "type": "uint256",
          "internalType": "uint256"
        }
      ],
      "outputs": [],
      "stateMutability": "nonpayable"
    },
    {
      "type": "function",
      "name": "zapOutAndLzBridgeTo",
      "inputs": [
        {
          "name": "lzParam",
          "type": "tuple",
          "internalType": "struct SendParam",
          "components": [
            {
              "name": "dstEid",
              "type": "uint32",
              "internalType": "uint32"
            },
            {
              "name": "to",
              "type": "bytes32",
              "internalType": "bytes32"
            },
            {
              "name": "amountLD",
              "type": "uint256",
              "internalType": "uint256"
            },
            {
              "name": "minAmountLD",
              "type": "uint256",
              "internalType": "uint256"
            },
            {
              "name": "extraOptions",
              "type": "bytes",
              "internalType": "bytes"
            },
            {
              "name": "composeMsg",
              "type": "bytes",
              "internalType": "bytes"
            },
            {
              "name": "oftCmd",
              "type": "bytes",
              "internalType": "bytes"
            }
          ]
        }
      ],
      "outputs": [],
      "stateMutability": "nonpayable"
    },
    {
      "type": "function",
      "name": "zapOutTo",
      "inputs": [
        {
          "name": "amount",
          "type": "uint256",
          "internalType": "uint256"
        },
        {
          "name": "to",
          "type": "address",
          "internalType": "address"
        }
      ],
      "outputs": [],
      "stateMutability": "nonpayable"
    },
    {
      "type": "event",
      "name": "Initialized",
      "inputs": [
        {
          "name": "version",
          "type": "uint64",
          "indexed": false,
          "internalType": "uint64"
        }
      ],
      "anonymous": false
    },
    {
      "type": "event",
      "name": "RoleAdminChanged",
      "inputs": [
        {
          "name": "role",
          "type": "bytes32",
          "indexed": true,
          "internalType": "bytes32"
        },
        {
          "name": "previousAdminRole",
          "type": "bytes32",
          "indexed": true,
          "internalType": "bytes32"
        },
        {
          "name": "newAdminRole",
          "type": "bytes32",
          "indexed": true,
          "internalType": "bytes32"
        }
      ],
      "anonymous": false
    },
    {
      "type": "event",
      "name": "RoleGranted",
      "inputs": [
        {
          "name": "role",
          "type": "bytes32",
          "indexed": true,
          "internalType": "bytes32"
        },
        {
          "name": "account",
          "type": "address",
          "indexed": true,
          "internalType": "address"
        },
        {
          "name": "sender",
          "type": "address",
          "indexed": true,
          "internalType": "address"
        }
      ],
      "anonymous": false
    },
    {
      "type": "event",
      "name": "RoleRevoked",
      "inputs": [
        {
          "name": "role",
          "type": "bytes32",
          "indexed": true,
          "internalType": "bytes32"
        },
        {
          "name": "account",
          "type": "address",
          "indexed": true,
          "internalType": "address"
        },
        {
          "name": "sender",
          "type": "address",
          "indexed": true,
          "internalType": "address"
        }
      ],
      "anonymous": false
    },
    {
      "type": "event",
      "name": "Upgraded",
      "inputs": [
        {
          "name": "implementation",
          "type": "address",
          "indexed": true,
          "internalType": "address"
        }
      ],
      "anonymous": false
    },
    {
      "type": "error",
      "name": "AccessControlBadConfirmation",
      "inputs": []
    },
    {
      "type": "error",
      "name": "AccessControlUnauthorizedAccount",
      "inputs": [
        {
          "name": "account",
          "type": "address",
          "internalType": "address"
        },
        {
          "name": "neededRole",
          "type": "bytes32",
          "internalType": "bytes32"
        }
      ]
    },
    {
      "type": "error",
      "name": "AddressEmptyCode",
      "inputs": [
        {
          "name": "target",
          "type": "address",
          "internalType": "address"
        }
      ]
    },
    {
      "type": "error",
      "name": "ERC1967InvalidImplementation",
      "inputs": [
        {
          "name": "implementation",
          "type": "address",
          "internalType": "address"
        }
      ]
    },
    {
      "type": "error",
      "name": "ERC1967NonPayable",
      "inputs": []
    },
    {
      "type": "error",
      "name": "FailedCall",
      "inputs": []
    },
    {
      "type": "error",
      "name": "InvalidInitialization",
      "inputs": []
    },
    {
      "type": "error",
      "name": "MintFailed",
      "inputs": []
    },
    {
      "type": "error",
      "name": "NotInitializing",
      "inputs": []
    },
    {
      "type": "error",
      "name": "RedeemFailed",
      "inputs": []
    },
    {
      "type": "error",
      "name": "ReentrancyGuardReentrantCall",
      "inputs": []
    },
    {
      "type": "error",
      "name": "TransferFailed",
      "inputs": [
        {
          "name": "token",
          "type": "address",
          "internalType": "address"
        },
        {
          "name": "to",
          "type": "address",
          "internalType": "address"
        },
        {
          "name": "from",
          "type": "address",
          "internalType": "address"
        },
        {
          "name": "value",
          "type": "uint256",
          "internalType": "uint256"
        }
      ]
    },
    {
      "type": "error",
      "name": "UUPSUnauthorizedCallContext",
      "inputs": []
    },
    {
      "type": "error",
      "name": "UUPSUnsupportedProxiableUUID",
      "inputs": [
        {
          "name": "slot",
          "type": "bytes32",
          "internalType": "bytes32"
        }
      ]
    },
    {
      "type": "error",
      "name": "ZeroAddress",
      "inputs": []
    }
  ],
  "bytecode": {
    "object": "0x60a06040523073ffffffffffffffffffffffffffffffffffffffff1660809073ffffffffffffffffffffffffffffffffffffffff16815250348015610042575f80fd5b5061005161005660201b60201c565b6101d1565b5f61006561015460201b60201c565b9050805f0160089054906101000a900460ff16156100af576040517ff92ee8a900000000000000000000000000000000000000000000000000000000815260040160405180910390fd5b67ffffffffffffffff8016815f015f9054906101000a900467ffffffffffffffff1667ffffffffffffffff16146101515767ffffffffffffffff815f015f6101000a81548167ffffffffffffffff021916908367ffffffffffffffff1602179055507fc7f505b2f371ae2175ee4913f4499e1f2633a7b5936321eed1cdaeb6115181d267ffffffffffffffff60405161014891906101b8565b60405180910390a15b50565b5f8061016461016d60201b60201c565b90508091505090565b5f7ff0c57e16840df040f15088dc2f81fe391c3923bec73e23a9662efc9c229c6a005f1b905090565b5f67ffffffffffffffff82169050919050565b6101b281610196565b82525050565b5f6020820190506101cb5f8301846101a9565b92915050565b6080516156e06101f75f395f8181612bbe01528181612c130152612dd201526156e05ff3fe608060405260043610610138575f3560e01c80637fa46ab4116100aa578063d53913931161006e578063d539139314610410578063d547741f1461043a578063de952ff814610462578063ef5506661461048a578063fa461e33146104b2578063fe27824a146104da5761013f565b80637fa46ab41461032e57806391d1485414610358578063a217fddf14610394578063abe03bae146103be578063ad3cb1cc146103e65761013f565b80632f2ff15d116100fc5780632f2ff15d1461024857806336568abe146102705780634f1ef2861461029857806352d1902d146102b45780635f6ba382146102de5780636cab20fd146103065761013f565b8063018770201461014357806301ffc9a71461016b5780630d96abfd146101a7578063248a9ca3146101cf57806324fe42901461020b5761013f565b3661013f57005b5f80fd5b34801561014e575f80fd5b5061016960048036038101906101649190613dfd565b610502565b005b348015610176575f80fd5b50610191600480360381019061018c9190613e7d565b610560565b60405161019e9190613ec2565b60405180910390f35b3480156101b2575f80fd5b506101cd60048036038101906101c89190613f0e565b6105d9565b005b3480156101da575f80fd5b506101f560048036038101906101f09190613f7f565b610713565b6040516102029190613fb9565b60405180910390f35b348015610216575f80fd5b50610231600480360381019061022c9190613f0e565b61073d565b60405161023f9291906140ac565b60405180910390f35b348015610253575f80fd5b5061026e600480360381019061026991906140d3565b61087e565b005b34801561027b575f80fd5b50610296600480360381019061029191906140d3565b6108a0565b005b6102b260048036038101906102ad919061424d565b61091b565b005b3480156102bf575f80fd5b506102c861093a565b6040516102d59190613fb9565b60405180910390f35b3480156102e9575f80fd5b5061030460048036038101906102ff9190613f0e565b61096b565b005b348015610311575f80fd5b5061032c600480360381019061032791906142e2565b610aa5565b005b348015610339575f80fd5b50610342610cdc565b60405161034f9190613fb9565b60405180910390f35b348015610363575f80fd5b5061037e600480360381019061037991906140d3565b610d00565b60405161038b9190613ec2565b60405180910390f35b34801561039f575f80fd5b506103a8610d71565b6040516103b59190613fb9565b60405180910390f35b3480156103c9575f80fd5b506103e460048036038101906103df919061432f565b610d77565b005b3480156103f1575f80fd5b506103fa610f16565b60405161040791906143cd565b60405180910390f35b34801561041b575f80fd5b50610424610f4f565b6040516104319190613fb9565b60405180910390f35b348015610445575f80fd5b50610460600480360381019061045b91906140d3565b610f73565b005b34801561046d575f80fd5b506104886004803603810190610483919061440b565b610f95565b005b348015610495575f80fd5b506104b060048036038101906104ab9190614452565b611370565b005b3480156104bd575f80fd5b506104d860048036038101906104d3919061450d565b6114b0565b005b3480156104e5575f80fd5b5061050060048036038101906104fb9190614452565b61177b565b005b5f801b61050e816118bb565b5f6105176118cf565b905082816004015f6101000a81548173ffffffffffffffffffffffffffffffffffffffff021916908373ffffffffffffffffffffffffffffffffffffffff160217905550505050565b5f7f7965db0b000000000000000000000000000000000000000000000000000000007bffffffffffffffffffffffffffffffffffffffffffffffffffffffff1916827bffffffffffffffffffffffffffffffffffffffffffffffffffffffff191614806105d257506105d1826118f6565b5b9050919050565b7f966f8194314eaee22f57867e94651373737ec999fd205661e0438047e341ce635f6106036118cf565b9050806001015f9054906101000a900473ffffffffffffffffffffffffffffffffffffffff1673ffffffffffffffffffffffffffffffffffffffff166391d148548361064d61195f565b6040518363ffffffff1660e01b815260040161066a92919061458d565b602060405180830381865afa158015610685573d5f803e3d5ffd5b505050506040513d601f19601f820116820180604052508101906106a991906145de565b6106f3576106b561195f565b826040517fe2517d3f0000000000000000000000000000000000000000000000000000000081526004016106ea929190614609565b60405180910390fd5b6106fb611966565b61070584846119ba565b61070d611c86565b50505050565b5f8061071d611c9d565b9050805f015f8481526020019081526020015f2060010154915050919050565b610745613d30565b61074d613d62565b7f966f8194314eaee22f57867e94651373737ec999fd205661e0438047e341ce635f6107776118cf565b9050806001015f9054906101000a900473ffffffffffffffffffffffffffffffffffffffff1673ffffffffffffffffffffffffffffffffffffffff166391d14854836107c161195f565b6040518363ffffffff1660e01b81526004016107de92919061458d565b602060405180830381865afa1580156107f9573d5f803e3d5ffd5b505050506040513d601f19601f8201168201806040525081019061081d91906145de565b6108675761082961195f565b826040517fe2517d3f00000000000000000000000000000000000000000000000000000000815260040161085e929190614609565b60405180910390fd5b6108718686611cc4565b9350935050509250929050565b61088782610713565b610890816118bb565b61089a83836129cc565b50505050565b6108a861195f565b73ffffffffffffffffffffffffffffffffffffffff168173ffffffffffffffffffffffffffffffffffffffff161461090c576040517f6697b23200000000000000000000000000000000000000000000000000000000815260040160405180910390fd5b6109168282612ac4565b505050565b610923612bbc565b61092c82612ca2565b6109368282612cb2565b5050565b5f610943612dd0565b7f360894a13ba1a3210667c828492db98dca3e2076cc3735a920a3ca505d382bbc5f1b905090565b7ff0887ba65ee2024ea881d91b74c2450ef19e1557f03bed3ea9f16b037cbe2dc95f6109956118cf565b9050806001015f9054906101000a900473ffffffffffffffffffffffffffffffffffffffff1673ffffffffffffffffffffffffffffffffffffffff166391d14854836109df61195f565b6040518363ffffffff1660e01b81526004016109fc92919061458d565b602060405180830381865afa158015610a17573d5f803e3d5ffd5b505050506040513d601f19601f82011682018060405250810190610a3b91906145de565b610a8557610a4761195f565b826040517fe2517d3f000000000000000000000000000000000000000000000000000000008152600401610a7c929190614609565b60405180910390fd5b610a8d611966565b610a978484612e57565b610a9f611c86565b50505050565b5f801b610ab1816118bb565b5f610aba6118cf565b90508273ffffffffffffffffffffffffffffffffffffffff166108fc4790811502906040515f60405180830381858888f19350505050505f816002015f9054906101000a900473ffffffffffffffffffffffffffffffffffffffff1673ffffffffffffffffffffffffffffffffffffffff166370a08231306040518263ffffffff1660e01b8152600401610b4e9190614630565b602060405180830381865afa158015610b69573d5f803e3d5ffd5b505050506040513d601f19601f82011682018060405250810190610b8d919061465d565b90505f811115610cd657816002015f9054906101000a900473ffffffffffffffffffffffffffffffffffffffff1673ffffffffffffffffffffffffffffffffffffffff1663095ea7b385836040518363ffffffff1660e01b8152600401610bf59291906146f2565b6020604051808303815f875af1158015610c11573d5f803e3d5ffd5b505050506040513d601f19601f82011682018060405250810190610c3591906145de565b50816002015f9054906101000a900473ffffffffffffffffffffffffffffffffffffffff1673ffffffffffffffffffffffffffffffffffffffff1663a9059cbb85836040518363ffffffff1660e01b8152600401610c949291906146f2565b6020604051808303815f875af1158015610cb0573d5f803e3d5ffd5b505050506040513d601f19601f82011682018060405250810190610cd491906145de565b505b50505050565b7f966f8194314eaee22f57867e94651373737ec999fd205661e0438047e341ce6381565b5f80610d0a611c9d565b9050805f015f8581526020019081526020015f205f015f8473ffffffffffffffffffffffffffffffffffffffff1673ffffffffffffffffffffffffffffffffffffffff1681526020019081526020015f205f9054906101000a900460ff1691505092915050565b5f801b81565b5f610d80613123565b90505f815f0160089054906101000a900460ff161590505f825f015f9054906101000a900467ffffffffffffffff1690505f808267ffffffffffffffff16148015610dc85750825b90505f60018367ffffffffffffffff16148015610dfb57505f3073ffffffffffffffffffffffffffffffffffffffff163b145b905081158015610e09575080155b15610e40576040517ff92ee8a900000000000000000000000000000000000000000000000000000000815260040160405180910390fd5b6001855f015f6101000a81548167ffffffffffffffff021916908367ffffffffffffffff1602179055508315610e8d576001855f0160086101000a81548160ff0219169083151502179055505b610e95613136565b610e9d613140565b610ea68661314a565b610eb25f801b886129cc565b508315610f0d575f855f0160086101000a81548160ff0219169083151502179055507fc7f505b2f371ae2175ee4913f4499e1f2633a7b5936321eed1cdaeb6115181d26001604051610f049190614752565b60405180910390a15b50505050505050565b6040518060400160405280600581526020017f352e302e3000000000000000000000000000000000000000000000000000000081525081565b7ff0887ba65ee2024ea881d91b74c2450ef19e1557f03bed3ea9f16b037cbe2dc981565b610f7c82610713565b610f85816118bb565b610f8f8383612ac4565b50505050565b7f966f8194314eaee22f57867e94651373737ec999fd205661e0438047e341ce635f610fbf6118cf565b9050806001015f9054906101000a900473ffffffffffffffffffffffffffffffffffffffff1673ffffffffffffffffffffffffffffffffffffffff166391d148548361100961195f565b6040518363ffffffff1660e01b815260040161102692919061458d565b602060405180830381865afa158015611041573d5f803e3d5ffd5b505050506040513d601f19601f8201168201806040525081019061106591906145de565b6110af5761107161195f565b826040517fe2517d3f0000000000000000000000000000000000000000000000000000000081526004016110a6929190614609565b60405180910390fd5b6110b7611966565b5f6110c06118cf565b90505f6112088560400135836001015f9054906101000a900473ffffffffffffffffffffffffffffffffffffffff1673ffffffffffffffffffffffffffffffffffffffff1663313ce5676040518163ffffffff1660e01b8152600401602060405180830381865afa158015611137573d5f803e3d5ffd5b505050506040513d601f19601f8201168201806040525081019061115b91906147a1565b600a6111679190614928565b846002015f9054906101000a900473ffffffffffffffffffffffffffffffffffffffff1673ffffffffffffffffffffffffffffffffffffffff1663313ce5676040518163ffffffff1660e01b8152600401602060405180830381865afa1580156111d3573d5f803e3d5ffd5b505050506040513d601f19601f820116820180604052508101906111f791906147a1565b600a6112039190614928565b6138fd565b905061121481306119ba565b5f826002015f9054906101000a900473ffffffffffffffffffffffffffffffffffffffff1673ffffffffffffffffffffffffffffffffffffffff16633b6f743b875f6040518363ffffffff1660e01b8152600401611273929190614b8b565b6040805180830381865afa15801561128d573d5f803e3d5ffd5b505050506040513d601f19601f820116820180604052508101906112b19190614c0a565b90505f80846002015f9054906101000a900473ffffffffffffffffffffffffffffffffffffffff1673ffffffffffffffffffffffffffffffffffffffff1663c7c7f5b3845f01518a86306040518563ffffffff1660e01b815260040161131993929190614c62565b60c06040518083038185885af1158015611335573d5f803e3d5ffd5b50505050506040513d601f19601f8201168201806040525081019061135a9190614d8a565b91509150505050505061136b611c86565b505050565b7ff0887ba65ee2024ea881d91b74c2450ef19e1557f03bed3ea9f16b037cbe2dc95f61139a6118cf565b9050806001015f9054906101000a900473ffffffffffffffffffffffffffffffffffffffff1673ffffffffffffffffffffffffffffffffffffffff166391d14854836113e461195f565b6040518363ffffffff1660e01b815260040161140192919061458d565b602060405180830381865afa15801561141c573d5f803e3d5ffd5b505050506040513d601f19601f8201168201806040525081019061144091906145de565b61148a5761144c61195f565b826040517fe2517d3f000000000000000000000000000000000000000000000000000000008152600401611481929190614609565b60405180910390fd5b611492611966565b6114a38361149e61195f565b612e57565b6114ab611c86565b505050565b5f6114b96118cf565b9050806004015f9054906101000a900473ffffffffffffffffffffffffffffffffffffffff1673ffffffffffffffffffffffffffffffffffffffff163373ffffffffffffffffffffffffffffffffffffffff161461154c576040517f08c379a000000000000000000000000000000000000000000000000000000000815260040161154390614e12565b60405180910390fd5b5f85131561166057806004015f9054906101000a900473ffffffffffffffffffffffffffffffffffffffff1673ffffffffffffffffffffffffffffffffffffffff16630dfe16816040518163ffffffff1660e01b8152600401602060405180830381865afa1580156115c0573d5f803e3d5ffd5b505050506040513d601f19601f820116820180604052508101906115e49190614e44565b73ffffffffffffffffffffffffffffffffffffffff1663a9059cbb33876040518363ffffffff1660e01b815260040161161e929190614e6f565b6020604051808303815f875af115801561163a573d5f803e3d5ffd5b505050506040513d601f19601f8201168201806040525081019061165e91906145de565b505b5f84131561177457806004015f9054906101000a900473ffffffffffffffffffffffffffffffffffffffff1673ffffffffffffffffffffffffffffffffffffffff1663d21220a76040518163ffffffff1660e01b8152600401602060405180830381865afa1580156116d4573d5f803e3d5ffd5b505050506040513d601f19601f820116820180604052508101906116f89190614e44565b73ffffffffffffffffffffffffffffffffffffffff1663a9059cbb33866040518363ffffffff1660e01b8152600401611732929190614e6f565b6020604051808303815f875af115801561174e573d5f803e3d5ffd5b505050506040513d601f19601f8201168201806040525081019061177291906145de565b505b5050505050565b7f966f8194314eaee22f57867e94651373737ec999fd205661e0438047e341ce635f6117a56118cf565b9050806001015f9054906101000a900473ffffffffffffffffffffffffffffffffffffffff1673ffffffffffffffffffffffffffffffffffffffff166391d14854836117ef61195f565b6040518363ffffffff1660e01b815260040161180c92919061458d565b602060405180830381865afa158015611827573d5f803e3d5ffd5b505050506040513d601f19601f8201168201806040525081019061184b91906145de565b6118955761185761195f565b826040517fe2517d3f00000000000000000000000000000000000000000000000000000000815260040161188c929190614609565b60405180910390fd5b61189d611966565b6118ae836118a961195f565b6119ba565b6118b6611c86565b505050565b6118cc816118c761195f565b61392a565b50565b5f7f4387e05f939ab688c86fd2a91847d45cedf6bd707f41c3ea87ea7383b559aa00905090565b5f7f01ffc9a7000000000000000000000000000000000000000000000000000000007bffffffffffffffffffffffffffffffffffffffffffffffffffffffff1916827bffffffffffffffffffffffffffffffffffffffffffffffffffffffff1916149050919050565b5f33905090565b5f61196f61397b565b90506002815f0154036119ae576040517f3ee5aeb500000000000000000000000000000000000000000000000000000000815260040160405180910390fd5b6002815f018190555050565b5f6119c36118cf565b90505f816001015f9054906101000a900473ffffffffffffffffffffffffffffffffffffffff1673ffffffffffffffffffffffffffffffffffffffff166323b872dd611a0d61195f565b30876040518463ffffffff1660e01b8152600401611a2d93929190614e96565b6020604051808303815f875af1158015611a49573d5f803e3d5ffd5b505050506040513d601f19601f82011682018060405250810190611a6d91906145de565b905080611ae157816001015f9054906101000a900473ffffffffffffffffffffffffffffffffffffffff1630611aa161195f565b866040517fcd3f1659000000000000000000000000000000000000000000000000000000008152600401611ad89493929190614ecb565b60405180910390fd5b816001015f9054906101000a900473ffffffffffffffffffffffffffffffffffffffff1673ffffffffffffffffffffffffffffffffffffffff1663205c287830866040518363ffffffff1660e01b8152600401611b3f929190614e6f565b6020604051808303815f875af1158015611b5b573d5f803e3d5ffd5b505050506040513d601f19601f82011682018060405250810190611b7f91906145de565b905080611bb8576040517fbb1205c200000000000000000000000000000000000000000000000000000000815260040160405180910390fd5b815f015f9054906101000a900473ffffffffffffffffffffffffffffffffffffffff1673ffffffffffffffffffffffffffffffffffffffff1663ed596315836002015f9054906101000a900473ffffffffffffffffffffffffffffffffffffffff1686865f6040518563ffffffff1660e01b8152600401611c3c9493929190614f0e565b5f604051808303815f875af1158015611c57573d5f803e3d5ffd5b505050506040513d5f823e3d601f19601f82011682018060405250810190611c7f9190615011565b5050505050565b5f611c8f61397b565b90506001815f018190555050565b5f7f02dd7bc7dec4dceedda775e58dd541e08a116c6c53815c0bd028192f7b626800905090565b611ccc613d30565b611cd4613d62565b5f611e2485611ce16118cf565b6002015f9054906101000a900473ffffffffffffffffffffffffffffffffffffffff1673ffffffffffffffffffffffffffffffffffffffff1663313ce5676040518163ffffffff1660e01b8152600401602060405180830381865afa158015611d4c573d5f803e3d5ffd5b505050506040513d601f19601f82011682018060405250810190611d7091906147a1565b600a611d7c9190614928565b611d846118cf565b6001015f9054906101000a900473ffffffffffffffffffffffffffffffffffffffff1673ffffffffffffffffffffffffffffffffffffffff1663313ce5676040518163ffffffff1660e01b8152600401602060405180830381865afa158015611def573d5f803e3d5ffd5b505050506040513d601f19601f82011682018060405250810190611e1391906147a1565b600a611e1f9190614928565b6138fd565b90505f611e2f6118cf565b90505f816001015f9054906101000a900473ffffffffffffffffffffffffffffffffffffffff1673ffffffffffffffffffffffffffffffffffffffff166323b872dd611e7961195f565b308a6040518463ffffffff1660e01b8152600401611e9993929190614e96565b6020604051808303815f875af1158015611eb5573d5f803e3d5ffd5b505050506040513d601f19601f82011682018060405250810190611ed991906145de565b905080611f4d57816001015f9054906101000a900473ffffffffffffffffffffffffffffffffffffffff1630611f0d61195f565b896040517fcd3f1659000000000000000000000000000000000000000000000000000000008152600401611f449493929190614ecb565b60405180910390fd5b816001015f9054906101000a900473ffffffffffffffffffffffffffffffffffffffff1673ffffffffffffffffffffffffffffffffffffffff1663205c287830896040518363ffffffff1660e01b8152600401611fab929190614e6f565b6020604051808303815f875af1158015611fc7573d5f803e3d5ffd5b505050506040513d601f19601f82011682018060405250810190611feb91906145de565b905080612024576040517fbb1205c200000000000000000000000000000000000000000000000000000000815260040160405180910390fd5b5f826003015f9054906101000a900473ffffffffffffffffffffffffffffffffffffffff1673ffffffffffffffffffffffffffffffffffffffff166370a08231306040518263ffffffff1660e01b81526004016120819190614630565b602060405180830381865afa15801561209c573d5f803e3d5ffd5b505050506040513d601f19601f820116820180604052508101906120c0919061465d565b90505f836002015f9054906101000a900473ffffffffffffffffffffffffffffffffffffffff1673ffffffffffffffffffffffffffffffffffffffff166370a08231306040518263ffffffff1660e01b815260040161211f9190614630565b602060405180830381865afa15801561213a573d5f803e3d5ffd5b505050506040513d601f19601f8201168201806040525081019061215e919061465d565b90505f845f015f9054906101000a900473ffffffffffffffffffffffffffffffffffffffff1690505f8173ffffffffffffffffffffffffffffffffffffffff166364f76eaa876002015f9054906101000a900473ffffffffffffffffffffffffffffffffffffffff166040518263ffffffff1660e01b81526004016121e39190614630565b602060405180830381865afa1580156121fe573d5f803e3d5ffd5b505050506040513d601f19601f82011682018060405250810190612222919061465d565b90505f8160026122329190615058565b64e8d4a51000886002015f9054906101000a900473ffffffffffffffffffffffffffffffffffffffff1673ffffffffffffffffffffffffffffffffffffffff166370a082318673ffffffffffffffffffffffffffffffffffffffff1663a622ee7c8c6002015f9054906101000a900473ffffffffffffffffffffffffffffffffffffffff166040518263ffffffff1660e01b81526004016122d39190614630565b602060405180830381865afa1580156122ee573d5f803e3d5ffd5b505050506040513d601f19601f8201168201806040525081019061231291906150d4565b6040518263ffffffff1660e01b815260040161232e9190614630565b602060405180830381865afa158015612349573d5f803e3d5ffd5b505050506040513d601f19601f8201168201806040525081019061236d919061465d565b6123779190615058565b61238191906150ff565b90505f811115612475575f818610612399578161239b565b855b9050875f015f9054906101000a900473ffffffffffffffffffffffffffffffffffffffff1673ffffffffffffffffffffffffffffffffffffffff1663ed596315896002015f9054906101000a900473ffffffffffffffffffffffffffffffffffffffff1683305f6040518563ffffffff1660e01b81526004016124219493929190614f0e565b5f604051808303815f875af115801561243c573d5f803e3d5ffd5b505050506040513d5f823e3d601f19601f820116820180604052508101906124649190615011565b50808661247191906150ff565b9550505b5f8511156125fe575f876004015f9054906101000a900473ffffffffffffffffffffffffffffffffffffffff1673ffffffffffffffffffffffffffffffffffffffff16633850c7bd6040518163ffffffff1660e01b815260040160e060405180830381865afa1580156124ea573d5f803e3d5ffd5b505050506040513d601f19601f8201168201806040525081019061250e91906151dd565b50505050505090505f633d272ff090505f633b9aca0090505f81838573ffffffffffffffffffffffffffffffffffffffff1661254a9190615058565b61255491906152a7565b90508a6004015f9054906101000a900473ffffffffffffffffffffffffffffffffffffffff1673ffffffffffffffffffffffffffffffffffffffff1663128acb08305f8c856040518563ffffffff1660e01b81526004016125b89493929190615328565b60408051808303815f875af11580156125d3573d5f803e3d5ffd5b505050506040513d601f19601f820116820180604052508101906125f79190615392565b5050505050505b5f876002015f9054906101000a900473ffffffffffffffffffffffffffffffffffffffff1673ffffffffffffffffffffffffffffffffffffffff166370a08231306040518263ffffffff1660e01b815260040161265b9190614630565b602060405180830381865afa158015612676573d5f803e3d5ffd5b505050506040513d601f19601f8201168201806040525081019061269a919061465d565b90505f85826126a991906150ff565b90506064605f8b6126ba9190615058565b6126c491906152a7565b811015612706576040517f08c379a00000000000000000000000000000000000000000000000000000000081526004016126fd90615440565b60405180910390fd5b5f6040518060e0016040528061759563ffffffff1681526020018f73ffffffffffffffffffffffffffffffffffffffff165f1b81526020018c81526020018c815260200160405180602001604052805f815250815260200160405180602001604052805f815250815260200160405180602001604052805f81525081525090505f8a6002015f9054906101000a900473ffffffffffffffffffffffffffffffffffffffff1673ffffffffffffffffffffffffffffffffffffffff16633b6f743b835f6040518363ffffffff1660e01b81526004016127e5929190615547565b6040805180830381865afa1580156127ff573d5f803e3d5ffd5b505050506040513d601f19601f820116820180604052508101906128239190614c0a565b905081604001518b6002015f9054906101000a900473ffffffffffffffffffffffffffffffffffffffff1673ffffffffffffffffffffffffffffffffffffffff166370a08231306040518263ffffffff1660e01b81526004016128869190614630565b602060405180830381865afa1580156128a1573d5f803e3d5ffd5b505050506040513d601f19601f820116820180604052508101906128c5919061465d565b1015612906576040517f08c379a00000000000000000000000000000000000000000000000000000000081526004016128fd906155bf565b60405180910390fd5b5f808c6002015f9054906101000a900473ffffffffffffffffffffffffffffffffffffffff1673ffffffffffffffffffffffffffffffffffffffff1663c7c7f5b3845f01518686306040518563ffffffff1660e01b815260040161296c939291906155dd565b60c06040518083038185885af1158015612988573d5f803e3d5ffd5b50505050506040513d601f19601f820116820180604052508101906129ad9190614d8a565b9150915081819f509f5050505050505050505050505050509250929050565b5f806129d6611c9d565b90506129e28484610d00565b612ab9576001815f015f8681526020019081526020015f205f015f8573ffffffffffffffffffffffffffffffffffffffff1673ffffffffffffffffffffffffffffffffffffffff1681526020019081526020015f205f6101000a81548160ff021916908315150217905550612a5561195f565b73ffffffffffffffffffffffffffffffffffffffff168373ffffffffffffffffffffffffffffffffffffffff16857f2f8788117e7eff1d82e926ec794901d17c78024a50270940304540a733656f0d60405160405180910390a46001915050612abe565b5f9150505b92915050565b5f80612ace611c9d565b9050612ada8484610d00565b15612bb1575f815f015f8681526020019081526020015f205f015f8573ffffffffffffffffffffffffffffffffffffffff1673ffffffffffffffffffffffffffffffffffffffff1681526020019081526020015f205f6101000a81548160ff021916908315150217905550612b4d61195f565b73ffffffffffffffffffffffffffffffffffffffff168373ffffffffffffffffffffffffffffffffffffffff16857ff6391f5c32d9c69d2a47ea670b442974b53935d1edc7fd64eb21e047a839171b60405160405180910390a46001915050612bb6565b5f9150505b92915050565b7f000000000000000000000000000000000000000000000000000000000000000073ffffffffffffffffffffffffffffffffffffffff163073ffffffffffffffffffffffffffffffffffffffff161480612c6957507f000000000000000000000000000000000000000000000000000000000000000073ffffffffffffffffffffffffffffffffffffffff16612c506139a2565b73ffffffffffffffffffffffffffffffffffffffff1614155b15612ca0576040517fe07c8dba00000000000000000000000000000000000000000000000000000000815260040160405180910390fd5b565b5f801b612cae816118bb565b5050565b8173ffffffffffffffffffffffffffffffffffffffff166352d1902d6040518163ffffffff1660e01b8152600401602060405180830381865afa925050508015612d1a57506040513d601f19601f82011682018060405250810190612d179190615619565b60015b612d5b57816040517f4c9c8ce3000000000000000000000000000000000000000000000000000000008152600401612d529190614630565b60405180910390fd5b7f360894a13ba1a3210667c828492db98dca3e2076cc3735a920a3ca505d382bbc5f1b8114612dc157806040517faa1d49a4000000000000000000000000000000000000000000000000000000008152600401612db89190613fb9565b60405180910390fd5b612dcb83836139f5565b505050565b7f000000000000000000000000000000000000000000000000000000000000000073ffffffffffffffffffffffffffffffffffffffff163073ffffffffffffffffffffffffffffffffffffffff1614612e55576040517fe07c8dba00000000000000000000000000000000000000000000000000000000815260040160405180910390fd5b565b5f612e606118cf565b90505f816002015f9054906101000a900473ffffffffffffffffffffffffffffffffffffffff1673ffffffffffffffffffffffffffffffffffffffff166323b872dd612eaa61195f565b30876040518463ffffffff1660e01b8152600401612eca93929190614e96565b6020604051808303815f875af1158015612ee6573d5f803e3d5ffd5b505050506040513d601f19601f82011682018060405250810190612f0a91906145de565b905080612f7e57816002015f9054906101000a900473ffffffffffffffffffffffffffffffffffffffff1630612f3e61195f565b866040517fcd3f1659000000000000000000000000000000000000000000000000000000008152600401612f759493929190614ecb565b60405180910390fd5b5f825f015f9054906101000a900473ffffffffffffffffffffffffffffffffffffffff1673ffffffffffffffffffffffffffffffffffffffff1663328ebaf7846002015f9054906101000a900473ffffffffffffffffffffffffffffffffffffffff1687305f6040518563ffffffff1660e01b81526004016130039493929190614f0e565b6020604051808303815f875af115801561301f573d5f803e3d5ffd5b505050506040513d601f19601f82011682018060405250810190613043919061465d565b9050826001015f9054906101000a900473ffffffffffffffffffffffffffffffffffffffff1673ffffffffffffffffffffffffffffffffffffffff16632f4f21e285836040518363ffffffff1660e01b81526004016130a3929190614e6f565b6020604051808303815f875af11580156130bf573d5f803e3d5ffd5b505050506040513d601f19601f820116820180604052508101906130e391906145de565b91508161311c576040517f07637bd800000000000000000000000000000000000000000000000000000000815260040160405180910390fd5b5050505050565b5f8061312d613a67565b90508091505090565b61313e613a90565b565b613148613a90565b565b613152613a90565b5f61315b6118cf565b90505f73ffffffffffffffffffffffffffffffffffffffff16825f0160208101906131869190613dfd565b73ffffffffffffffffffffffffffffffffffffffff16036131d3576040517fd92e233d00000000000000000000000000000000000000000000000000000000815260040160405180910390fd5b815f0160208101906131e59190613dfd565b815f015f6101000a81548173ffffffffffffffffffffffffffffffffffffffff021916908373ffffffffffffffffffffffffffffffffffffffff1602179055505f73ffffffffffffffffffffffffffffffffffffffff1682602001602081019061324f9190613dfd565b73ffffffffffffffffffffffffffffffffffffffff160361329c576040517fd92e233d00000000000000000000000000000000000000000000000000000000815260040160405180910390fd5b8160200160208101906132af9190613dfd565b816001015f6101000a81548173ffffffffffffffffffffffffffffffffffffffff021916908373ffffffffffffffffffffffffffffffffffffffff1602179055505f73ffffffffffffffffffffffffffffffffffffffff1682604001602081019061331a9190613dfd565b73ffffffffffffffffffffffffffffffffffffffff1603613367576040517fd92e233d00000000000000000000000000000000000000000000000000000000815260040160405180910390fd5b81604001602081019061337a9190613dfd565b816002015f6101000a81548173ffffffffffffffffffffffffffffffffffffffff021916908373ffffffffffffffffffffffffffffffffffffffff1602179055505f73ffffffffffffffffffffffffffffffffffffffff168260600160208101906133e59190613dfd565b73ffffffffffffffffffffffffffffffffffffffff1603613432576040517fd92e233d00000000000000000000000000000000000000000000000000000000815260040160405180910390fd5b8160600160208101906134459190613dfd565b816003015f6101000a81548173ffffffffffffffffffffffffffffffffffffffff021916908373ffffffffffffffffffffffffffffffffffffffff1602179055505f73ffffffffffffffffffffffffffffffffffffffff168260800160208101906134b09190613dfd565b73ffffffffffffffffffffffffffffffffffffffff16036134fd576040517fd92e233d00000000000000000000000000000000000000000000000000000000815260040160405180910390fd5b8160800160208101906135109190613dfd565b816004015f6101000a81548173ffffffffffffffffffffffffffffffffffffffff021916908373ffffffffffffffffffffffffffffffffffffffff1602179055505f73ffffffffffffffffffffffffffffffffffffffff168260a001602081019061357b9190613dfd565b73ffffffffffffffffffffffffffffffffffffffff16036135c8576040517fd92e233d00000000000000000000000000000000000000000000000000000000815260040160405180910390fd5b8160a00160208101906135db9190613dfd565b816005015f6101000a81548173ffffffffffffffffffffffffffffffffffffffff021916908373ffffffffffffffffffffffffffffffffffffffff160217905550806002015f9054906101000a900473ffffffffffffffffffffffffffffffffffffffff1673ffffffffffffffffffffffffffffffffffffffff1663095ea7b3835f01602081019061366d9190613dfd565b7fffffffffffffffffffffffffffffffffffffffffffffffffffffffffffffffff6040518363ffffffff1660e01b81526004016136ab929190614e6f565b6020604051808303815f875af11580156136c7573d5f803e3d5ffd5b505050506040513d601f19601f820116820180604052508101906136eb91906145de565b50806002015f9054906101000a900473ffffffffffffffffffffffffffffffffffffffff1673ffffffffffffffffffffffffffffffffffffffff1663095ea7b383604001602081019061373e9190613dfd565b7fffffffffffffffffffffffffffffffffffffffffffffffffffffffffffffffff6040518363ffffffff1660e01b815260040161377c929190614e6f565b6020604051808303815f875af1158015613798573d5f803e3d5ffd5b505050506040513d601f19601f820116820180604052508101906137bc91906145de565b50805f015f9054906101000a900473ffffffffffffffffffffffffffffffffffffffff1673ffffffffffffffffffffffffffffffffffffffff166336b2c4b26040518163ffffffff1660e01b8152600401602060405180830381865afa158015613828573d5f803e3d5ffd5b505050506040513d601f19601f8201168201806040525081019061384c919061567f565b73ffffffffffffffffffffffffffffffffffffffff1663095ea7b383602001602081019061387a9190613dfd565b7fffffffffffffffffffffffffffffffffffffffffffffffffffffffffffffffff6040518363ffffffff1660e01b81526004016138b8929190614e6f565b6020604051808303815f875af11580156138d4573d5f803e3d5ffd5b505050506040513d601f19601f820116820180604052508101906138f891906145de565b505050565b5f82840290508183858304148515170261391e5763ad251c275f526004601cfd5b81810490509392505050565b6139348282610d00565b6139775780826040517fe2517d3f00000000000000000000000000000000000000000000000000000000815260040161396e929190614609565b60405180910390fd5b5050565b5f7f9b779b17422d0df92223018b32b4d1fa46e071723d6817e2486d003becc55f00905090565b5f6139ce7f360894a13ba1a3210667c828492db98dca3e2076cc3735a920a3ca505d382bbc5f1b613ad0565b5f015f9054906101000a900473ffffffffffffffffffffffffffffffffffffffff16905090565b6139fe82613ad9565b8173ffffffffffffffffffffffffffffffffffffffff167fbc7cd75a20ee27fd9adebab32041f755214dbc6bffa90cc0225b39da2e5c2d3b60405160405180910390a25f81511115613a5a57613a548282613ba2565b50613a63565b613a62613c93565b5b5050565b5f7ff0c57e16840df040f15088dc2f81fe391c3923bec73e23a9662efc9c229c6a005f1b905090565b613a98613ccf565b613ace576040517fd7e6bcf800000000000000000000000000000000000000000000000000000000815260040160405180910390fd5b565b5f819050919050565b5f8173ffffffffffffffffffffffffffffffffffffffff163b03613b3457806040517f4c9c8ce3000000000000000000000000000000000000000000000000000000008152600401613b2b9190614630565b60405180910390fd5b80613b607f360894a13ba1a3210667c828492db98dca3e2076cc3735a920a3ca505d382bbc5f1b613ad0565b5f015f6101000a81548173ffffffffffffffffffffffffffffffffffffffff021916908373ffffffffffffffffffffffffffffffffffffffff16021790555050565b60605f613baf8484613ced565b9050808015613be557505f613bc2613d01565b1180613be457505f8473ffffffffffffffffffffffffffffffffffffffff163b115b5b15613bfa57613bf2613d08565b915050613c8d565b8015613c3d57836040517f9996b315000000000000000000000000000000000000000000000000000000008152600401613c349190614630565b60405180910390fd5b5f613c46613d01565b1115613c5957613c54613d25565b613c8b565b6040517fd6bda27500000000000000000000000000000000000000000000000000000000815260040160405180910390fd5b505b92915050565b5f341115613ccd576040517fb398979f00000000000000000000000000000000000000000000000000000000815260040160405180910390fd5b565b5f613cd8613123565b5f0160089054906101000a900460ff16905090565b5f805f835160208501865af4905092915050565b5f3d905090565b606060405190503d81523d5f602083013e3d602001810160405290565b6040513d5f823e3d81fd5b60405180606001604052805f80191681526020015f67ffffffffffffffff168152602001613d5c613d7a565b81525090565b60405180604001604052805f81526020015f81525090565b60405180604001604052805f81526020015f81525090565b5f604051905090565b5f80fd5b5f80fd5b5f73ffffffffffffffffffffffffffffffffffffffff82169050919050565b5f613dcc82613da3565b9050919050565b613ddc81613dc2565b8114613de6575f80fd5b50565b5f81359050613df781613dd3565b92915050565b5f60208284031215613e1257613e11613d9b565b5b5f613e1f84828501613de9565b91505092915050565b5f7fffffffff0000000000000000000000000000000000000000000000000000000082169050919050565b613e5c81613e28565b8114613e66575f80fd5b50565b5f81359050613e7781613e53565b92915050565b5f60208284031215613e9257613e91613d9b565b5b5f613e9f84828501613e69565b91505092915050565b5f8115159050919050565b613ebc81613ea8565b82525050565b5f602082019050613ed55f830184613eb3565b92915050565b5f819050919050565b613eed81613edb565b8114613ef7575f80fd5b50565b5f81359050613f0881613ee4565b92915050565b5f8060408385031215613f2457613f23613d9b565b5b5f613f3185828601613efa565b9250506020613f4285828601613de9565b9150509250929050565b5f819050919050565b613f5e81613f4c565b8114613f68575f80fd5b50565b5f81359050613f7981613f55565b92915050565b5f60208284031215613f9457613f93613d9b565b5b5f613fa184828501613f6b565b91505092915050565b613fb381613f4c565b82525050565b5f602082019050613fcc5f830184613faa565b92915050565b613fdb81613f4c565b82525050565b5f67ffffffffffffffff82169050919050565b613ffd81613fe1565b82525050565b61400c81613edb565b82525050565b604082015f8201516140265f850182614003565b5060208201516140396020850182614003565b50505050565b608082015f8201516140535f850182613fd2565b5060208201516140666020850182613ff4565b5060408201516140796040850182614012565b50505050565b604082015f8201516140935f850182614003565b5060208201516140a66020850182614003565b50505050565b5f60c0820190506140bf5f83018561403f565b6140cc608083018461407f565b9392505050565b5f80604083850312156140e9576140e8613d9b565b5b5f6140f685828601613f6b565b925050602061410785828601613de9565b9150509250929050565b5f80fd5b5f80fd5b5f601f19601f8301169050919050565b7f4e487b71000000000000000000000000000000000000000000000000000000005f52604160045260245ffd5b61415f82614119565b810181811067ffffffffffffffff8211171561417e5761417d614129565b5b80604052505050565b5f614190613d92565b905061419c8282614156565b919050565b5f67ffffffffffffffff8211156141bb576141ba614129565b5b6141c482614119565b9050602081019050919050565b828183375f83830152505050565b5f6141f16141ec846141a1565b614187565b90508281526020810184848401111561420d5761420c614115565b5b6142188482856141d1565b509392505050565b5f82601f83011261423457614233614111565b5b81356142448482602086016141df565b91505092915050565b5f806040838503121561426357614262613d9b565b5b5f61427085828601613de9565b925050602083013567ffffffffffffffff81111561429157614290613d9f565b5b61429d85828601614220565b9150509250929050565b5f6142b182613da3565b9050919050565b6142c1816142a7565b81146142cb575f80fd5b50565b5f813590506142dc816142b8565b92915050565b5f602082840312156142f7576142f6613d9b565b5b5f614304848285016142ce565b91505092915050565b5f80fd5b5f60c082840312156143265761432561430d565b5b81905092915050565b5f8060e0838503121561434557614344613d9b565b5b5f61435285828601613de9565b925050602061436385828601614311565b9150509250929050565b5f81519050919050565b5f82825260208201905092915050565b8281835e5f83830152505050565b5f61439f8261436d565b6143a98185614377565b93506143b9818560208601614387565b6143c281614119565b840191505092915050565b5f6020820190508181035f8301526143e58184614395565b905092915050565b5f60e082840312156144025761440161430d565b5b81905092915050565b5f602082840312156144205761441f613d9b565b5b5f82013567ffffffffffffffff81111561443d5761443c613d9f565b5b614449848285016143ed565b91505092915050565b5f6020828403121561446757614466613d9b565b5b5f61447484828501613efa565b91505092915050565b5f819050919050565b61448f8161447d565b8114614499575f80fd5b50565b5f813590506144aa81614486565b92915050565b5f80fd5b5f80fd5b5f8083601f8401126144cd576144cc614111565b5b8235905067ffffffffffffffff8111156144ea576144e96144b0565b5b602083019150836001820283011115614506576145056144b4565b5b9250929050565b5f805f806060858703121561452557614524613d9b565b5b5f6145328782880161449c565b94505060206145438782880161449c565b935050604085013567ffffffffffffffff81111561456457614563613d9f565b5b614570878288016144b8565b925092505092959194509250565b61458781613dc2565b82525050565b5f6040820190506145a05f830185613faa565b6145ad602083018461457e565b9392505050565b6145bd81613ea8565b81146145c7575f80fd5b50565b5f815190506145d8816145b4565b92915050565b5f602082840312156145f3576145f2613d9b565b5b5f614600848285016145ca565b91505092915050565b5f60408201905061461c5f83018561457e565b6146296020830184613faa565b9392505050565b5f6020820190506146435f83018461457e565b92915050565b5f8151905061465781613ee4565b92915050565b5f6020828403121561467257614671613d9b565b5b5f61467f84828501614649565b91505092915050565b5f819050919050565b5f6146ab6146a66146a184613da3565b614688565b613da3565b9050919050565b5f6146bc82614691565b9050919050565b5f6146cd826146b2565b9050919050565b6146dd816146c3565b82525050565b6146ec81613edb565b82525050565b5f6040820190506147055f8301856146d4565b61471260208301846146e3565b9392505050565b5f819050919050565b5f61473c61473761473284614719565b614688565b613fe1565b9050919050565b61474c81614722565b82525050565b5f6020820190506147655f830184614743565b92915050565b5f60ff82169050919050565b6147808161476b565b811461478a575f80fd5b50565b5f8151905061479b81614777565b92915050565b5f602082840312156147b6576147b5613d9b565b5b5f6147c38482850161478d565b91505092915050565b7f4e487b71000000000000000000000000000000000000000000000000000000005f52601160045260245ffd5b5f8160011c9050919050565b5f808291508390505b600185111561484e5780860481111561482a576148296147cc565b5b60018516156148395780820291505b8081029050614847856147f9565b945061480e565b94509492505050565b5f826148665760019050614921565b81614873575f9050614921565b81600181146148895760028114614893576148c2565b6001915050614921565b60ff8411156148a5576148a46147cc565b5b8360020a9150848211156148bc576148bb6147cc565b5b50614921565b5060208310610133831016604e8410600b84101617156148f75782820a9050838111156148f2576148f16147cc565b5b614921565b6149048484846001614805565b9250905081840481111561491b5761491a6147cc565b5b81810290505b9392505050565b5f61493282613edb565b915061493d8361476b565b925061496a7fffffffffffffffffffffffffffffffffffffffffffffffffffffffffffffffff8484614857565b905092915050565b5f63ffffffff82169050919050565b61498a81614972565b8114614994575f80fd5b50565b5f813590506149a581614981565b92915050565b5f6149b96020840184614997565b905092915050565b6149ca81614972565b82525050565b5f6149de6020840184613f6b565b905092915050565b5f6149f46020840184613efa565b905092915050565b5f80fd5b5f80fd5b5f80fd5b5f8083356001602003843603038112614a2457614a23614a04565b5b83810192508235915060208301925067ffffffffffffffff821115614a4c57614a4b6149fc565b5b600182023603831315614a6257614a61614a00565b5b509250929050565b5f82825260208201905092915050565b5f614a858385614a6a565b9350614a928385846141d1565b614a9b83614119565b840190509392505050565b5f60e08301614ab75f8401846149ab565b614ac35f8601826149c1565b50614ad160208401846149d0565b614ade6020860182613fd2565b50614aec60408401846149e6565b614af96040860182614003565b50614b0760608401846149e6565b614b146060860182614003565b50614b226080840184614a08565b8583036080870152614b35838284614a7a565b92505050614b4660a0840184614a08565b85830360a0870152614b59838284614a7a565b92505050614b6a60c0840184614a08565b85830360c0870152614b7d838284614a7a565b925050508091505092915050565b5f6040820190508181035f830152614ba38185614aa6565b9050614bb26020830184613eb3565b9392505050565b5f80fd5b5f60408284031215614bd257614bd1614bb9565b5b614bdc6040614187565b90505f614beb84828501614649565b5f830152506020614bfe84828501614649565b60208301525092915050565b5f60408284031215614c1f57614c1e613d9b565b5b5f614c2c84828501614bbd565b91505092915050565b604082015f820151614c495f850182614003565b506020820151614c5c6020850182614003565b50505050565b5f6080820190508181035f830152614c7a8186614aa6565b9050614c896020830185614c35565b614c96606083018461457e565b949350505050565b5f81519050614cac81613f55565b92915050565b614cbb81613fe1565b8114614cc5575f80fd5b50565b5f81519050614cd681614cb2565b92915050565b5f60808284031215614cf157614cf0614bb9565b5b614cfb6060614187565b90505f614d0a84828501614c9e565b5f830152506020614d1d84828501614cc8565b6020830152506040614d3184828501614bbd565b60408301525092915050565b5f60408284031215614d5257614d51614bb9565b5b614d5c6040614187565b90505f614d6b84828501614649565b5f830152506020614d7e84828501614649565b60208301525092915050565b5f8060c08385031215614da057614d9f613d9b565b5b5f614dad85828601614cdc565b9250506080614dbe85828601614d3d565b9150509250929050565b7f756e617574686f72697a656420706f6f6c0000000000000000000000000000005f82015250565b5f614dfc601183614377565b9150614e0782614dc8565b602082019050919050565b5f6020820190508181035f830152614e2981614df0565b9050919050565b5f81519050614e3e81613dd3565b92915050565b5f60208284031215614e5957614e58613d9b565b5b5f614e6684828501614e30565b91505092915050565b5f604082019050614e825f83018561457e565b614e8f60208301846146e3565b9392505050565b5f606082019050614ea95f83018661457e565b614eb6602083018561457e565b614ec360408301846146e3565b949350505050565b5f608082019050614ede5f83018761457e565b614eeb602083018661457e565b614ef8604083018561457e565b614f0560608301846146e3565b95945050505050565b5f608082019050614f215f83018761457e565b614f2e60208301866146e3565b614f3b604083018561457e565b614f486060830184613eb3565b95945050505050565b5f67ffffffffffffffff821115614f6b57614f6a614129565b5b602082029050602081019050919050565b5f614f8e614f8984614f51565b614187565b90508083825260208201905060208402830185811115614fb157614fb06144b4565b5b835b81811015614fda5780614fc68882614649565b845260208401935050602081019050614fb3565b5050509392505050565b5f82601f830112614ff857614ff7614111565b5b8151615008848260208601614f7c565b91505092915050565b5f6020828403121561502657615025613d9b565b5b5f82015167ffffffffffffffff81111561504357615042613d9f565b5b61504f84828501614fe4565b91505092915050565b5f61506282613edb565b915061506d83613edb565b925082820261507b81613edb565b91508282048414831517615092576150916147cc565b5b5092915050565b5f6150a382613dc2565b9050919050565b6150b381615099565b81146150bd575f80fd5b50565b5f815190506150ce816150aa565b92915050565b5f602082840312156150e9576150e8613d9b565b5b5f6150f6848285016150c0565b91505092915050565b5f61510982613edb565b915061511483613edb565b925082820390508181111561512c5761512b6147cc565b5b92915050565b61513b81613da3565b8114615145575f80fd5b50565b5f8151905061515681615132565b92915050565b5f8160020b9050919050565b6151718161515c565b811461517b575f80fd5b50565b5f8151905061518c81615168565b92915050565b5f61ffff82169050919050565b6151a881615192565b81146151b2575f80fd5b50565b5f815190506151c38161519f565b92915050565b5f815190506151d781614981565b92915050565b5f805f805f805f60e0888a0312156151f8576151f7613d9b565b5b5f6152058a828b01615148565b97505060206152168a828b0161517e565b96505060406152278a828b016151b5565b95505060606152388a828b016151b5565b94505060806152498a828b016151b5565b93505060a061525a8a828b016151c9565b92505060c061526b8a828b016145ca565b91505092959891949750929550565b7f4e487b71000000000000000000000000000000000000000000000000000000005f52601260045260245ffd5b5f6152b182613edb565b91506152bc83613edb565b9250826152cc576152cb61527a565b5b828204905092915050565b6152e08161447d565b82525050565b6152ef81613da3565b82525050565b5f82825260208201905092915050565b50565b5f6153135f836152f5565b915061531e82615305565b5f82019050919050565b5f60a08201905061533b5f83018761457e565b6153486020830186613eb3565b61535560408301856152d7565b61536260608301846152e6565b818103608083015261537381615308565b905095945050505050565b5f8151905061538c81614486565b92915050565b5f80604083850312156153a8576153a7613d9b565b5b5f6153b58582860161537e565b92505060206153c68582860161537e565b9150509250929050565b7f696e73756666696369656e742042595553442066726f6d20737761702f7265645f8201527f656d7074696f6e00000000000000000000000000000000000000000000000000602082015250565b5f61542a602783614377565b9150615435826153d0565b604082019050919050565b5f6020820190508181035f8301526154578161541e565b9050919050565b5f81519050919050565b5f6154728261545e565b61547c8185614a6a565b935061548c818560208601614387565b61549581614119565b840191505092915050565b5f60e083015f8301516154b55f8601826149c1565b5060208301516154c86020860182613fd2565b5060408301516154db6040860182614003565b5060608301516154ee6060860182614003565b50608083015184820360808601526155068282615468565b91505060a083015184820360a08601526155208282615468565b91505060c083015184820360c086015261553a8282615468565b9150508091505092915050565b5f6040820190508181035f83015261555f81856154a0565b905061556e6020830184613eb3565b9392505050565b7f696e73756666696369656e7420425955534420616674657220737761700000005f82015250565b5f6155a9601d83614377565b91506155b482615575565b602082019050919050565b5f6020820190508181035f8301526155d68161559d565b9050919050565b5f6080820190508181035f8301526155f581866154a0565b90506156046020830185614c35565b615611606083018461457e565b949350505050565b5f6020828403121561562e5761562d613d9b565b5b5f61563b84828501614c9e565b91505092915050565b5f61564e82613dc2565b9050919050565b61565e81615644565b8114615668575f80fd5b50565b5f8151905061567981615655565b92915050565b5f6020828403121561569457615693613d9b565b5b5f6156a18482850161566b565b9150509291505056fea26469706673582212201136c041ed43684f05cddaf782ad158a8a584f92522538ce4bbdeaf5f194c52364736f6c634300081a0033",
    "linkReferences": {}
  },
  "methodIdentifiers": {
    "DEFAULT_ADMIN_ROLE()": "a217fddf",
    "MINTER_ROLE()": "d5391393",
    "REDEEMER_ROLE()": "7fa46ab4",
    "UPGRADE_INTERFACE_VERSION()": "ad3cb1cc",
    "getRoleAdmin(bytes32)": "248a9ca3",
    "grantRole(bytes32,address)": "2f2ff15d",
    "hasRole(bytes32,address)": "91d14854",
    "initialize(address,(address,address,address,address,address,address))": "abe03bae",
    "proxiableUUID()": "52d1902d",
    "recoverTo(address)": "6cab20fd",
    "renounceRole(bytes32,address)": "36568abe",
    "revokeRole(bytes32,address)": "d547741f",
    "setLiquidityPool(address)": "01877020",
    "supportsInterface(bytes4)": "01ffc9a7",
    "uniswapV3SwapCallback(int256,int256,bytes)": "fa461e33",
    "unwrapSwapAndBridge(uint256,address)": "24fe4290",
    "upgradeToAndCall(address,bytes)": "4f1ef286",
    "zapIn(uint256)": "ef550666",
    "zapInTo(uint256,address)": "5f6ba382",
    "zapOut(uint256)": "fe27824a",
    "zapOutAndLzBridgeTo((uint32,bytes32,uint256,uint256,bytes,bytes,bytes))": "de952ff8",
    "zapOutTo(uint256,address)": "0d96abfd"
  },
  "storageLayout": {
    "storage": [],
    "types": {}
  },
  "id": 97
}