{
  "abi": [
    {
      "type": "constructor",
      "inputs": [],
      "stateMutability": "nonpayable"
    },
    {
      "type": "function",
      "name": "DEFAULT_ADMIN_ROLE",
      "inputs": [],
      "outputs": [
        {
          "name": "",
          "type": "bytes32",
          "internalType": "bytes32"
        }
      ],
      "stateMutability": "view"
    },
    {
      "type": "function",
      "name": "MINTER_ADMIN_ROLE",
      "inputs": [],
      "outputs": [
        {
          "name": "",
          "type": "bytes32",
          "internalType": "bytes32"
        }
      ],
      "stateMutability": "view"
    },
    {
      "type": "function",
      "name": "MINTER_ROLE",
      "inputs": [],
      "outputs": [
        {
          "name": "",
          "type": "bytes32",
          "internalType": "bytes32"
        }
      ],
      "stateMutability": "view"
    },
    {
      "type": "function",
      "name": "REDEEMER_ADMIN_ROLE",
      "inputs": [],
      "outputs": [
        {
          "name": "",
          "type": "bytes32",
          "internalType": "bytes32"
        }
      ],
      "stateMutability": "view"
    },
    {
      "type": "function",
      "name": "REDEEMER_ROLE",
      "inputs": [],
      "outputs": [
        {
          "name": "",
          "type": "bytes32",
          "internalType": "bytes32"
        }
      ],
      "stateMutability": "view"
    },
    {
      "type": "function",
      "name": "UPGRADE_INTERFACE_VERSION",
      "inputs": [],
      "outputs": [
        {
          "name": "",
          "type": "string",
          "internalType": "string"
        }
      ],
      "stateMutability": "view"
    },
    {
      "type": "function",
      "name": "allowance",
      "inputs": [
        {
          "name": "owner",
          "type": "address",
          "internalType": "address"
        },
        {
          "name": "spender",
          "type": "address",
          "internalType": "address"
        }
      ],
      "outputs": [
        {
          "name": "",
          "type": "uint256",
          "internalType": "uint256"
        }
      ],
      "stateMutability": "view"
    },
    {
      "type": "function",
      "name": "approve",
      "inputs": [
        {
          "name": "spender",
          "type": "address",
          "internalType": "address"
        },
        {
          "name": "value",
          "type": "uint256",
          "internalType": "uint256"
        }
      ],
      "outputs": [
        {
          "name": "",
          "type": "bool",
          "internalType": "bool"
        }
      ],
      "stateMutability": "nonpayable"
    },
    {
      "type": "function",
      "name": "balanceOf",
      "inputs": [
        {
          "name": "account",
          "type": "address",
          "internalType": "address"
        }
      ],
      "outputs": [
        {
          "name": "",
          "type": "uint256",
          "internalType": "uint256"
        }
      ],
      "stateMutability": "view"
    },
    {
      "type": "function",
      "name": "decimals",
      "inputs": [],
      "outputs": [
        {
          "name": "",
          "type": "uint8",
          "internalType": "uint8"
        }
      ],
      "stateMutability": "view"
    },
    {
      "type": "function",
      "name": "depositFor",
      "inputs": [
        {
          "name": "account",
          "type": "address",
          "internalType": "address"
        },
        {
          "name": "amount",
          "type": "uint256",
          "internalType": "uint256"
        }
      ],
      "outputs": [
        {
          "name": "",
          "type": "bool",
          "internalType": "bool"
        }
      ],
      "stateMutability": "nonpayable"
    },
    {
      "type": "function",
      "name": "getRoleAdmin",
      "inputs": [
        {
          "name": "role",
          "type": "bytes32",
          "internalType": "bytes32"
        }
      ],
      "outputs": [
        {
          "name": "",
          "type": "bytes32",
          "internalType": "bytes32"
        }
      ],
      "stateMutability": "view"
    },
    {
      "type": "function",
      "name": "grantRole",
      "inputs": [
        {
          "name": "role",
          "type": "bytes32",
          "internalType": "bytes32"
        },
        {
          "name": "account",
          "type": "address",
          "internalType": "address"
        }
      ],
      "outputs": [],
      "stateMutability": "nonpayable"
    },
    {
      "type": "function",
      "name": "hasRole",
      "inputs": [
        {
          "name": "role",
          "type": "bytes32",
          "internalType": "bytes32"
        },
        {
          "name": "account",
          "type": "address",
          "internalType": "address"
        }
      ],
      "outputs": [
        {
          "name": "",
          "type": "bool",
          "internalType": "bool"
        }
      ],
      "stateMutability": "view"
    },
    {
      "type": "function",
      "name": "initialize",
      "inputs": [
        {
          "name": "_governance",
          "type": "address",
          "internalType": "address"
        },
        {
          "name": "_underlyingToken",
          "type": "address",
          "internalType": "contract IERC20"
        }
      ],
      "outputs": [],
      "stateMutability": "nonpayable"
    },
    {
      "type": "function",
      "name": "name",
      "inputs": [],
      "outputs": [
        {
          "name": "",
          "type": "string",
          "internalType": "string"
        }
      ],
      "stateMutability": "view"
    },
    {
      "type": "function",
      "name": "proxiableUUID",
      "inputs": [],
      "outputs": [
        {
          "name": "",
          "type": "bytes32",
          "internalType": "bytes32"
        }
      ],
      "stateMutability": "view"
    },
    {
      "type": "function",
      "name": "renounceRole",
      "inputs": [
        {
          "name": "role",
          "type": "bytes32",
          "internalType": "bytes32"
        },
        {
          "name": "callerConfirmation",
          "type": "address",
          "internalType": "address"
        }
      ],
      "outputs": [],
      "stateMutability": "nonpayable"
    },
    {
      "type": "function",
      "name": "revokeRole",
      "inputs": [
        {
          "name": "role",
          "type": "bytes32",
          "internalType": "bytes32"
        },
        {
          "name": "account",
          "type": "address",
          "internalType": "address"
        }
      ],
      "outputs": [],
      "stateMutability": "nonpayable"
    },
    {
      "type": "function",
      "name": "setAdminRole",
      "inputs": [
        {
          "name": "role",
          "type": "bytes32",
          "internalType": "bytes32"
        },
        {
          "name": "adminRole",
          "type": "bytes32",
          "internalType": "bytes32"
        }
      ],
      "outputs": [],
      "stateMutability": "nonpayable"
    },
    {
      "type": "function",
      "name": "supportsInterface",
      "inputs": [
        {
          "name": "interfaceId",
          "type": "bytes4",
          "internalType": "bytes4"
        }
      ],
      "outputs": [
        {
          "name": "",
          "type": "bool",
          "internalType": "bool"
        }
      ],
      "stateMutability": "view"
    },
    {
      "type": "function",
      "name": "symbol",
      "inputs": [],
      "outputs": [
        {
          "name": "",
          "type": "string",
          "internalType": "string"
        }
      ],
      "stateMutability": "view"
    },
    {
      "type": "function",
      "name": "totalSupply",
      "inputs": [],
      "outputs": [
        {
          "name": "",
          "type": "uint256",
          "internalType": "uint256"
        }
      ],
      "stateMutability": "view"
    },
    {
      "type": "function",
      "name": "transfer",
      "inputs": [
        {
          "name": "to",
          "type": "address",
          "internalType": "address"
        },
        {
          "name": "value",
          "type": "uint256",
          "internalType": "uint256"
        }
      ],
      "outputs": [
        {
          "name": "",
          "type": "bool",
          "internalType": "bool"
        }
      ],
      "stateMutability": "nonpayable"
    },
    {
      "type": "function",
      "name": "transferFrom",
      "inputs": [
        {
          "name": "from",
          "type": "address",
          "internalType": "address"
        },
        {
          "name": "to",
          "type": "address",
          "internalType": "address"
        },
        {
          "name": "value",
          "type": "uint256",
          "internalType": "uint256"
        }
      ],
      "outputs": [
        {
          "name": "",
          "type": "bool",
          "internalType": "bool"
        }
      ],
      "stateMutability": "nonpayable"
    },
    {
      "type": "function",
      "name": "underlying",
      "inputs": [],
      "outputs": [
        {
          "name": "",
          "type": "address",
          "internalType": "contract IERC20"
        }
      ],
      "stateMutability": "view"
    },
    {
      "type": "function",
      "name": "upgradeToAndCall",
      "inputs": [
        {
          "name": "newImplementation",
          "type": "address",
          "internalType": "address"
        },
        {
          "name": "data",
          "type": "bytes",
          "internalType": "bytes"
        }
      ],
      "outputs": [],
      "stateMutability": "payable"
    },
    {
      "type": "function",
      "name": "withdrawTo",
      "inputs": [
        {
          "name": "account",
          "type": "address",
          "internalType": "address"
        },
        {
          "name": "amount",
          "type": "uint256",
          "internalType": "uint256"
        }
      ],
      "outputs": [
        {
          "name": "",
          "type": "bool",
          "internalType": "bool"
        }
      ],
      "stateMutability": "nonpayable"
    },
    {
      "type": "event",
      "name": "Approval",
      "inputs": [
        {
          "name": "owner",
          "type": "address",
          "indexed": true,
          "internalType": "address"
        },
        {
          "name": "spender",
          "type": "address",
          "indexed": true,
          "internalType": "address"
        },
        {
          "name": "value",
          "type": "uint256",
          "indexed": false,
          "internalType": "uint256"
        }
      ],
      "anonymous": false
    },
    {
      "type": "event",
      "name": "Initialized",
      "inputs": [
        {
          "name": "version",
          "type": "uint64",
          "indexed": false,
          "internalType": "uint64"
        }
      ],
      "anonymous": false
    },
    {
      "type": "event",
      "name": "RoleAdminChanged",
      "inputs": [
        {
          "name": "role",
          "type": "bytes32",
          "indexed": true,
          "internalType": "bytes32"
        },
        {
          "name": "previousAdminRole",
          "type": "bytes32",
          "indexed": true,
          "internalType": "bytes32"
        },
        {
          "name": "newAdminRole",
          "type": "bytes32",
          "indexed": true,
          "internalType": "bytes32"
        }
      ],
      "anonymous": false
    },
    {
      "type": "event",
      "name": "RoleGranted",
      "inputs": [
        {
          "name": "role",
          "type": "bytes32",
          "indexed": true,
          "internalType": "bytes32"
        },
        {
          "name": "account",
          "type": "address",
          "indexed": true,
          "internalType": "address"
        },
        {
          "name": "sender",
          "type": "address",
          "indexed": true,
          "internalType": "address"
        }
      ],
      "anonymous": false
    },
    {
      "type": "event",
      "name": "RoleRevoked",
      "inputs": [
        {
          "name": "role",
          "type": "bytes32",
          "indexed": true,
          "internalType": "bytes32"
        },
        {
          "name": "account",
          "type": "address",
          "indexed": true,
          "internalType": "address"
        },
        {
          "name": "sender",
          "type": "address",
          "indexed": true,
          "internalType": "address"
        }
      ],
      "anonymous": false
    },
    {
      "type": "event",
      "name": "Transfer",
      "inputs": [
        {
          "name": "from",
          "type": "address",
          "indexed": true,
          "internalType": "address"
        },
        {
          "name": "to",
          "type": "address",
          "indexed": true,
          "internalType": "address"
        },
        {
          "name": "value",
          "type": "uint256",
          "indexed": false,
          "internalType": "uint256"
        }
      ],
      "anonymous": false
    },
    {
      "type": "event",
      "name": "Upgraded",
      "inputs": [
        {
          "name": "implementation",
          "type": "address",
          "indexed": true,
          "internalType": "address"
        }
      ],
      "anonymous": false
    },
    {
      "type": "error",
      "name": "AccessControlBadConfirmation",
      "inputs": []
    },
    {
      "type": "error",
      "name": "AccessControlUnauthorizedAccount",
      "inputs": [
        {
          "name": "account",
          "type": "address",
          "internalType": "address"
        },
        {
          "name": "neededRole",
          "type": "bytes32",
          "internalType": "bytes32"
        }
      ]
    },
    {
      "type": "error",
      "name": "AddressEmptyCode",
      "inputs": [
        {
          "name": "target",
          "type": "address",
          "internalType": "address"
        }
      ]
    },
    {
      "type": "error",
      "name": "ERC1967InvalidImplementation",
      "inputs": [
        {
          "name": "implementation",
          "type": "address",
          "internalType": "address"
        }
      ]
    },
    {
      "type": "error",
      "name": "ERC1967NonPayable",
      "inputs": []
    },
    {
      "type": "error",
      "name": "ERC20InsufficientAllowance",
      "inputs": [
        {
          "name": "spender",
          "type": "address",
          "internalType": "address"
        },
        {
          "name": "allowance",
          "type": "uint256",
          "internalType": "uint256"
        },
        {
          "name": "needed",
          "type": "uint256",
          "internalType": "uint256"
        }
      ]
    },
    {
      "type": "error",
      "name": "ERC20InsufficientBalance",
      "inputs": [
        {
          "name": "sender",
          "type": "address",
          "internalType": "address"
        },
        {
          "name": "balance",
          "type": "uint256",
          "internalType": "uint256"
        },
        {
          "name": "needed",
          "type": "uint256",
          "internalType": "uint256"
        }
      ]
    },
    {
      "type": "error",
      "name": "ERC20InvalidApprover",
      "inputs": [
        {
          "name": "approver",
          "type": "address",
          "internalType": "address"
        }
      ]
    },
    {
      "type": "error",
      "name": "ERC20InvalidReceiver",
      "inputs": [
        {
          "name": "receiver",
          "type": "address",
          "internalType": "address"
        }
      ]
    },
    {
      "type": "error",
      "name": "ERC20InvalidSender",
      "inputs": [
        {
          "name": "sender",
          "type": "address",
          "internalType": "address"
        }
      ]
    },
    {
      "type": "error",
      "name": "ERC20InvalidSpender",
      "inputs": [
        {
          "name": "spender",
          "type": "address",
          "internalType": "address"
        }
      ]
    },
    {
      "type": "error",
      "name": "ERC20InvalidUnderlying",
      "inputs": [
        {
          "name": "token",
          "type": "address",
          "internalType": "address"
        }
      ]
    },
    {
      "type": "error",
      "name": "FailedCall",
      "inputs": []
    },
    {
      "type": "error",
      "name": "InvalidInitialization",
      "inputs": []
    },
    {
      "type": "error",
      "name": "NotInitializing",
      "inputs": []
    },
    {
      "type": "error",
      "name": "SafeERC20FailedOperation",
      "inputs": [
        {
          "name": "token",
          "type": "address",
          "internalType": "address"
        }
      ]
    },
    {
      "type": "error",
      "name": "UUPSUnauthorizedCallContext",
      "inputs": []
    },
    {
      "type": "error",
      "name": "UUPSUnsupportedProxiableUUID",
      "inputs": [
        {
          "name": "slot",
          "type": "bytes32",
          "internalType": "bytes32"
        }
      ]
    },
    {
      "type": "error",
      "name": "ZeroAddress",
      "inputs": []
    }
  ],
  "bytecode": {
    "object": "0x60a06040523060805234801561001457600080fd5b5061001d610022565b6100d4565b7ff0c57e16840df040f15088dc2f81fe391c3923bec73e23a9662efc9c229c6a00805468010000000000000000900460ff16156100725760405163f92ee8a960e01b815260040160405180910390fd5b80546001600160401b03908116146100d15780546001600160401b0319166001600160401b0390811782556040519081527fc7f505b2f371ae2175ee4913f4499e1f2633a7b5936321eed1cdaeb6115181d29060200160405180910390a15b50565b608051611c686100fd60003960008181610eb501528181610ede01526110220152611c686000f3fe6080604052600436106101b75760003560e01c806352d1902d116100ec578063a9059cbb1161008a578063d539139311610064578063d539139314610555578063d547741f14610589578063dd62ed3e146105a9578063dfde5e58146105c957600080fd5b8063a9059cbb146104d0578063ad3cb1cc146104f0578063c9adf5571461052157600080fd5b80637fa46ab4116100c65780637fa46ab41461045257806391d148541461048657806395d89b41146104a6578063a217fddf146104bb57600080fd5b806352d1902d146103c55780636f307dc3146103da57806370a082311461040f57600080fd5b8063248a9ca311610159578063313ce56711610133578063313ce5671461034b57806336568abe14610372578063485cc955146103925780634f1ef286146103b257600080fd5b8063248a9ca3146102e95780632f2ff15d146103095780632f4f21e21461032b57600080fd5b80631339324b116101955780631339324b1461023357806318160ddd14610275578063205c2878146102a957806323b872dd146102c957600080fd5b806301ffc9a7146101bc57806306fdde03146101f1578063095ea7b314610213575b600080fd5b3480156101c857600080fd5b506101dc6101d736600461175e565b6105e9565b60405190151581526020015b60405180910390f35b3480156101fd57600080fd5b50610206610620565b6040516101e891906117ac565b34801561021f57600080fd5b506101dc61022e3660046117f4565b6106e3565b34801561023f57600080fd5b506102677f498a9dae57f391d8efcc7bb3e7440ad6a25b1261044ef1b555c5484cb9f6765981565b6040519081526020016101e8565b34801561028157600080fd5b507f52c63247e1f47db19d5ce0460030c497f067ca4cebf71ba98eeadabe20bace0254610267565b3480156102b557600080fd5b506101dc6102c43660046117f4565b6106fb565b3480156102d557600080fd5b506101dc6102e4366004611820565b610741565b3480156102f557600080fd5b50610267610304366004611861565b610765565b34801561031557600080fd5b5061032961032436600461187a565b610787565b005b34801561033757600080fd5b506101dc6103463660046117f4565b6107a9565b34801561035757600080fd5b506103606107e8565b60405160ff90911681526020016101e8565b34801561037e57600080fd5b5061032961038d36600461187a565b610869565b34801561039e57600080fd5b506103296103ad3660046118aa565b6108a1565b6103296103c03660046118ee565b610a2a565b3480156103d157600080fd5b50610267610a49565b3480156103e657600080fd5b50600080516020611bd3833981519152546040516001600160a01b0390911681526020016101e8565b34801561041b57600080fd5b5061026761042a3660046119ba565b6001600160a01b03166000908152600080516020611bb3833981519152602052604090205490565b34801561045e57600080fd5b506102677f966f8194314eaee22f57867e94651373737ec999fd205661e0438047e341ce6381565b34801561049257600080fd5b506101dc6104a136600461187a565b610a66565b3480156104b257600080fd5b50610206610a9e565b3480156104c757600080fd5b50610267600081565b3480156104dc57600080fd5b506101dc6104eb3660046117f4565b610add565b3480156104fc57600080fd5b50610206604051806040016040528060058152602001640352e302e360dc1b81525081565b34801561052d57600080fd5b506102677f14dfd053822731770e1bb7dd6729fc1694bee325c911630f09a2dc3351850c9f81565b34801561056157600080fd5b506102677ff0887ba65ee2024ea881d91b74c2450ef19e1557f03bed3ea9f16b037cbe2dc981565b34801561059557600080fd5b506103296105a436600461187a565b610aeb565b3480156105b557600080fd5b506102676105c43660046118aa565b610b07565b3480156105d557600080fd5b506103296105e43660046119d7565b610b51565b60006001600160e01b03198216637965db0b60e01b148061061a57506301ffc9a760e01b6001600160e01b03198316145b92915050565b7f52c63247e1f47db19d5ce0460030c497f067ca4cebf71ba98eeadabe20bace038054606091600080516020611bb38339815191529161065f906119f9565b80601f016020809104026020016040519081016040528092919081815260200182805461068b906119f9565b80156106d85780601f106106ad576101008083540402835291602001916106d8565b820191906000526020600020905b8154815290600101906020018083116106bb57829003601f168201915b505050505091505090565b6000336106f1818585610b66565b5060019392505050565b60006107277f966f8194314eaee22f57867e94651373737ec999fd205661e0438047e341ce6333610a66565b61073057600080fd5b61073a8383610b73565b9392505050565b60003361074f858285610bdd565b61075a858585610c3e565b506001949350505050565b6000908152600080516020611c13833981519152602052604090206001015490565b61079082610765565b61079981610c9d565b6107a38383610caa565b50505050565b60006107d57ff0887ba65ee2024ea881d91b74c2450ef19e1557f03bed3ea9f16b037cbe2dc933610a66565b6107de57600080fd5b61073a8383610d4f565b600080516020611bd383398151915280546040805163313ce56760e01b81529051600093926001600160a01b03169163313ce5679160048083019260209291908290030181865afa92505050801561085d575060408051601f3d908101601f1916820190925261085a91810190611a33565b60015b61061a57601291505090565b6001600160a01b03811633146108925760405163334bd91960e11b815260040160405180910390fd5b61089c8282610dd8565b505050565b60006108ab610e54565b805490915060ff600160401b820416159067ffffffffffffffff166000811580156108d35750825b905060008267ffffffffffffffff1660011480156108f05750303b155b9050811580156108fe575080155b1561091c5760405163f92ee8a960e01b815260040160405180910390fd5b845467ffffffffffffffff19166001178555831561094657845460ff60401b1916600160401b1785555b61094e610e7d565b610956610e7d565b61095f86610e87565b6109a86040518060400160405280600a815260200169053464c55562056322e360b41b8152506040518060400160405280600581526020016429a3262aab60d91b815250610e98565b6001600160a01b0387166109cf5760405163d92e233d60e01b815260040160405180910390fd5b6109da600088610caa565b508315610a2157845460ff60401b19168555604051600181527fc7f505b2f371ae2175ee4913f4499e1f2633a7b5936321eed1cdaeb6115181d29060200160405180910390a15b50505050505050565b610a32610eaa565b610a3b82610f4f565b610a458282610f5a565b5050565b6000610a53611017565b50600080516020611bf383398151915290565b6000918252600080516020611c13833981519152602090815260408084206001600160a01b0393909316845291905290205460ff1690565b7f52c63247e1f47db19d5ce0460030c497f067ca4cebf71ba98eeadabe20bace048054606091600080516020611bb38339815191529161065f906119f9565b6000336106f1818585610c3e565b610af482610765565b610afd81610c9d565b6107a38383610dd8565b6001600160a01b0391821660009081527f52c63247e1f47db19d5ce0460030c497f067ca4cebf71ba98eeadabe20bace016020908152604080832093909416825291909152205490565b6000610b5c81610c9d565b61089c8383611060565b61089c83838360016110c3565b6000600080516020611bd3833981519152306001600160a01b03851603610bbd5760405163ec442f0560e01b81526001600160a01b03851660048201526024015b60405180910390fd5b610bc733846111ab565b80546106f1906001600160a01b031685856111e1565b6000610be98484610b07565b90506000198110156107a35781811015610c2f57604051637dc7a0d960e11b81526001600160a01b03841660048201526024810182905260448101839052606401610bb4565b6107a3848484840360006110c3565b6001600160a01b038316610c6857604051634b637e8f60e11b815260006004820152602401610bb4565b6001600160a01b038216610c925760405163ec442f0560e01b815260006004820152602401610bb4565b61089c838383611240565b610ca7813361137e565b50565b6000600080516020611c13833981519152610cc58484610a66565b610d45576000848152602082815260408083206001600160a01b03871684529091529020805460ff19166001179055610cfb3390565b6001600160a01b0316836001600160a01b0316857f2f8788117e7eff1d82e926ec794901d17c78024a50270940304540a733656f0d60405160405180910390a4600191505061061a565b600091505061061a565b6000600080516020611bd383398151915233308103610d8357604051634b637e8f60e11b8152306004820152602401610bb4565b306001600160a01b03861603610db75760405163ec442f0560e01b81526001600160a01b0386166004820152602401610bb4565b8154610dce906001600160a01b03168230876113b7565b61075a85856113f0565b6000600080516020611c13833981519152610df38484610a66565b15610d45576000848152602082815260408083206001600160a01b0387168085529252808320805460ff1916905551339287917ff6391f5c32d9c69d2a47ea670b442974b53935d1edc7fd64eb21e047a839171b9190a4600191505061061a565b6000807ff0c57e16840df040f15088dc2f81fe391c3923bec73e23a9662efc9c229c6a0061061a565b610e85611426565b565b610e8f611426565b610ca78161144b565b610ea0611426565b610a4582826114ad565b306001600160a01b037f0000000000000000000000000000000000000000000000000000000000000000161480610f3157507f00000000000000000000000000000000000000000000000000000000000000006001600160a01b0316610f25600080516020611bf3833981519152546001600160a01b031690565b6001600160a01b031614155b15610e855760405163703e46dd60e11b815260040160405180910390fd5b6000610a4581610c9d565b816001600160a01b03166352d1902d6040518163ffffffff1660e01b8152600401602060405180830381865afa925050508015610fb4575060408051601f3d908101601f19168201909252610fb191810190611a56565b60015b610fdc57604051634c9c8ce360e01b81526001600160a01b0383166004820152602401610bb4565b600080516020611bf3833981519152811461100d57604051632a87526960e21b815260048101829052602401610bb4565b61089c83836114fe565b306001600160a01b037f00000000000000000000000000000000000000000000000000000000000000001614610e855760405163703e46dd60e11b815260040160405180910390fd5b600080516020611c13833981519152600061107a84610765565b600085815260208490526040808220600101869055519192508491839187917fbd79b86ffe0ab8e8776151514217cd7cacd52c909f66475c3af44e129f0b00ff9190a450505050565b600080516020611bb38339815191526001600160a01b0385166110fc5760405163e602df0560e01b815260006004820152602401610bb4565b6001600160a01b03841661112657604051634a1406b160e11b815260006004820152602401610bb4565b6001600160a01b038086166000908152600183016020908152604080832093881683529290522083905581156111a457836001600160a01b0316856001600160a01b03167f8c5be1e5ebec7d5bd14f71427d1e84f3dd0314c0f7b2291e5b200ac8c7c3b9258560405161119b91815260200190565b60405180910390a35b5050505050565b6001600160a01b0382166111d557604051634b637e8f60e11b815260006004820152602401610bb4565b610a4582600083611240565b6040516001600160a01b0383811660248301526044820183905261089c91859182169063a9059cbb906064015b604051602081830303815290604052915060e01b6020820180516001600160e01b038381831617835250505050611554565b600080516020611bb38339815191526001600160a01b03841661127c57818160020160008282546112719190611a6f565b909155506112ee9050565b6001600160a01b038416600090815260208290526040902054828110156112cf5760405163391434e360e21b81526001600160a01b03861660048201526024810182905260448101849052606401610bb4565b6001600160a01b03851660009081526020839052604090209083900390555b6001600160a01b03831661130c57600281018054839003905561132b565b6001600160a01b03831660009081526020829052604090208054830190555b826001600160a01b0316846001600160a01b03167fddf252ad1be2c89b69c2b068fc378daa952ba7f163c4a11628f55a4df523b3ef8460405161137091815260200190565b60405180910390a350505050565b6113888282610a66565b610a455760405163e2517d3f60e01b81526001600160a01b038216600482015260248101839052604401610bb4565b6040516001600160a01b0384811660248301528381166044830152606482018390526107a39186918216906323b872dd9060840161120e565b6001600160a01b03821661141a5760405163ec442f0560e01b815260006004820152602401610bb4565b610a4560008383611240565b61142e6115c5565b610e8557604051631afcd79f60e31b815260040160405180910390fd5b611453611426565b600080516020611bd3833981519152306001600160a01b0383160361148d5760405163438d6fe360e01b8152306004820152602401610bb4565b80546001600160a01b0319166001600160a01b0392909216919091179055565b6114b5611426565b600080516020611bb38339815191527f52c63247e1f47db19d5ce0460030c497f067ca4cebf71ba98eeadabe20bace036114ef8482611ad7565b50600481016107a38382611ad7565b611507826115df565b6040516001600160a01b038316907fbc7cd75a20ee27fd9adebab32041f755214dbc6bffa90cc0225b39da2e5c2d3b90600090a280511561154c5761089c8282611644565b610a456116ba565b600080602060008451602086016000885af180611577576040513d6000823e3d81fd5b50506000513d9150811561158f57806001141561159c565b6001600160a01b0384163b155b156107a357604051635274afe760e01b81526001600160a01b0385166004820152602401610bb4565b60006115cf610e54565b54600160401b900460ff16919050565b806001600160a01b03163b60000361161557604051634c9c8ce360e01b81526001600160a01b0382166004820152602401610bb4565b600080516020611bf383398151915280546001600160a01b0319166001600160a01b0392909216919091179055565b6060600080846001600160a01b0316846040516116619190611b96565b600060405180830381855af49150503d806000811461169c576040519150601f19603f3d011682016040523d82523d6000602084013e6116a1565b606091505b50915091506116b18583836116d9565b95945050505050565b3415610e855760405163b398979f60e01b815260040160405180910390fd5b6060826116ee576116e982611735565b61073a565b815115801561170557506001600160a01b0384163b155b1561172e57604051639996b31560e01b81526001600160a01b0385166004820152602401610bb4565b508061073a565b8051156117455780518082602001fd5b60405163d6bda27560e01b815260040160405180910390fd5b60006020828403121561177057600080fd5b81356001600160e01b03198116811461073a57600080fd5b60005b838110156117a357818101518382015260200161178b565b50506000910152565b60208152600082518060208401526117cb816040850160208701611788565b601f01601f19169190910160400192915050565b6001600160a01b0381168114610ca757600080fd5b6000806040838503121561180757600080fd5b8235611812816117df565b946020939093013593505050565b60008060006060848603121561183557600080fd5b8335611840816117df565b92506020840135611850816117df565b929592945050506040919091013590565b60006020828403121561187357600080fd5b5035919050565b6000806040838503121561188d57600080fd5b82359150602083013561189f816117df565b809150509250929050565b600080604083850312156118bd57600080fd5b82356118c8816117df565b9150602083013561189f816117df565b634e487b7160e01b600052604160045260246000fd5b6000806040838503121561190157600080fd5b823561190c816117df565b9150602083013567ffffffffffffffff81111561192857600080fd5b8301601f8101851361193957600080fd5b803567ffffffffffffffff811115611953576119536118d8565b604051601f8201601f19908116603f0116810167ffffffffffffffff81118282101715611982576119826118d8565b60405281815282820160200187101561199a57600080fd5b816020840160208301376000602083830101528093505050509250929050565b6000602082840312156119cc57600080fd5b813561073a816117df565b600080604083850312156119ea57600080fd5b50508035926020909101359150565b600181811c90821680611a0d57607f821691505b602082108103611a2d57634e487b7160e01b600052602260045260246000fd5b50919050565b600060208284031215611a4557600080fd5b815160ff8116811461073a57600080fd5b600060208284031215611a6857600080fd5b5051919050565b8082018082111561061a57634e487b7160e01b600052601160045260246000fd5b601f82111561089c57806000526020600020601f840160051c81016020851015611ab75750805b601f840160051c820191505b818110156111a45760008155600101611ac3565b815167ffffffffffffffff811115611af157611af16118d8565b611b0581611aff84546119f9565b84611a90565b6020601f821160018114611b395760008315611b215750848201515b600019600385901b1c1916600184901b1784556111a4565b600084815260208120601f198516915b82811015611b695787850151825560209485019460019092019101611b49565b5084821015611b875786840151600019600387901b60f8161c191681555b50505050600190811b01905550565b60008251611ba8818460208701611788565b919091019291505056fe52c63247e1f47db19d5ce0460030c497f067ca4cebf71ba98eeadabe20bace003b5a617e0d4c238430871a64fe18212794b0c8d05a4eac064a8c9039fb5e0700360894a13ba1a3210667c828492db98dca3e2076cc3735a920a3ca505d382bbc02dd7bc7dec4dceedda775e58dd541e08a116c6c53815c0bd028192f7b626800a2646970667358221220786a472c6940201c43f4b8012b5fb4c084d293d3e2c7c853fcfd4f87fb2ce3a764736f6c634300081c0033",
    "linkReferences": {}
  },
  "methodIdentifiers": {
    "DEFAULT_ADMIN_ROLE()": "a217fddf",
    "MINTER_ADMIN_ROLE()": "1339324b",
    "MINTER_ROLE()": "d5391393",
    "REDEEMER_ADMIN_ROLE()": "c9adf557",
    "REDEEMER_ROLE()": "7fa46ab4",
    "UPGRADE_INTERFACE_VERSION()": "ad3cb1cc",
    "allowance(address,address)": "dd62ed3e",
    "approve(address,uint256)": "095ea7b3",
    "balanceOf(address)": "70a08231",
    "decimals()": "313ce567",
    "depositFor(address,uint256)": "2f4f21e2",
    "getRoleAdmin(bytes32)": "248a9ca3",
    "grantRole(bytes32,address)": "2f2ff15d",
    "hasRole(bytes32,address)": "91d14854",
    "initialize(address,address)": "485cc955",
    "name()": "06fdde03",
    "proxiableUUID()": "52d1902d",
    "renounceRole(bytes32,address)": "36568abe",
    "revokeRole(bytes32,address)": "d547741f",
    "setAdminRole(bytes32,bytes32)": "dfde5e58",
    "supportsInterface(bytes4)": "01ffc9a7",
    "symbol()": "95d89b41",
    "totalSupply()": "18160ddd",
    "transfer(address,uint256)": "a9059cbb",
    "transferFrom(address,address,uint256)": "23b872dd",
    "underlying()": "6f307dc3",
    "upgradeToAndCall(address,bytes)": "4f1ef286",
    "withdrawTo(address,uint256)": "205c2878"
  },
  "storageLayout": {
    "storage": [],
    "types": {}
  },
  "id": 73
}